S015000073686F72746573745F706174682E7372656387
S1130000372500001305057113010500EF000046B4
S11300106F00000003A70500631A070883A64500C4
S113002083270500639606008326450063D6D70E12
S113003083A68500639606008326850063D8D70CC3
S113004083A6C500639606008326C50063DAD70A33
S113005083A60501639606008326050163DCD708A1
S113006083A64501639606008326450163DED70611
S113007083A68501639606008326850163D0D7068F
S113008083A6C501639606008326C50163D2D704FF
S113009083A60502639806008326050263C4D7007D
S11300A013078000130507006780000083A745003D
S11300B06398070083274500130710006FF05FF76C
S11300C0B70700801307000093C7F7FF6FF05FF6D0
S11300D093870600130770006FF09FFB9387060059
S11300E0130760006FF0DFF99387060013075000D1
S11300F06FF01FF893870600130740006FF05FF658
S113010093870600130730006FF09FF4938706006F
S1130110130720006FF0DFF2938706001307100027
S11301206FF01FF1370300809307C05B1343F3FFA5
S113013013972500130101FD23A0670023A2670084
S113014023A4670023A6670023A8670023AA6700E7
S113015023AC670023AE670023A067023387E70060
S113016023260100232007009305800013080300C1
S1130170130E100023280100232A0100232C010060
S1130180232E010023200102232201022324010241
S1130190232601026F00402703A6070093060000F0
S11301A06396080083A84700635A162B83284101ED
S11301B06396080083A88700635A16278328810161
S11301C0639C080083A8C7006348160113860800CF
S11301D09306C006130730008328C101639C0800FE
S11301E083A80701634816011386080093060009D3
S11301F01307400083280102639C080083A8470179
S113020063481601138608009306400B1307500039
S113021083284102639C080083A887016348160170
S1130220138608009306800D13076000832881025B
S1130230639C080083A8C70163481601138608005D
S11302409306C00F130770008328C102639A080045
S113025083A8070263461601930600121307800061
S1130260131727001306070333062600232EC6FDA3
S11302700326C100B306D5006314060203A60600D4
S113028063000602B388E70083A80800638A0801B4
S113029083AE0700B388C80063D4D80123A0170134
S11302A0032601016314060203A646006300060246
S11302B0B388E70083A80800638A080183AE470077
S11302C0B388C80063D4D80123A2170103264101CF
S11302D06314060203A6860063000602B388E700DF
S11302E083A80800638A080183AE870033061601D9
S11302F06354D60123A4C7000326810163140602B4
S113030003A6C60063000602B388E70083A80800BA
S1130310638A080183AEC700330616016354D6010D
S113032023A6C7000326C1016314060203A606011F
S113033063000602B388E70083A80800638A080103
S113034083AE0701330616016354D60123A8C70000
S1130350032601026314060203A646016300060293
S1130360B388E70083A80800638A080183AE4701C5
S1130370330616016354D60123AAC700032641029B
S11303806314060203A6860163000602B388E7002D
S113039083A80800638A080183AE87013306160127
S11303A06354D60123ACC7000326810263140602FA
S11303B003A6C60163000602B388E70083A8080009
S11303C0638A080183AEC701330616016354D6015C
S11303D023AEC7000326C1026314060283A60602E5
S11303E0638006023387E70003270700630A0701D7
S11303F003A60702B386E60063D4C60023A0D7028F
S11304009385F5FF638805040327C1008328010150
S1130410E30407D86394080203A647009306400246
S1130420130710006FF09FD883A887001386080075
S113043093068004130720006FF05FD8032741015F
S1130440E30407FE930600001307000013060300ED
S11304506FF0DFD6130101036780000013860800E4
S113046093064002130710006FF05FD49305000059
S10B0470130580476FF01FCB58
S1130478000000000600000000000000000000006A
S11304880000000000000000000000000800000058
S11304980000000006000000000000000800000042
S11304A80000000000000000000000000000000040
S11304B80D0000000000000000000000080000001B
S11304C80000000007000000000000000600000013
S11304D8000000000000000002000000000000000E
S11304E800000000070000000000000009000000F0
S11304F80E000000000000000000000000000000E2
S113050800000000000000000000000009000000D6
S1130518000000000A0000000000000000000000C5
S113052800000000000000000000000006000000B9
S11305380E0000000A000000000000000200000095
S1130548000000000000000000000000000000009F
S1130558000000000000000000000000020000008D
S11305680000000001000000060000000800000070
S11305780D00000000000000000000000000000062
S11305880000000001000000000000000700000057
S1130598000000000000000002000000000000004D
S11305A80000000000000000060000000700000032
S10705B8000000003B
S9030000FC
