S01800006D61747269785F7472616E73706F73652E7372656339
S1130000372500001305057113010500EF00800377
S11300106F000000930705001307050183A607007E
S113002023A0D50083A6070123A2D50083A6070237
S113003023A4D500938747009385C500E390E7FE8A
S113004067800000130101FF232611009305400976
S113005013054006EFF01FFC8320C10013010101CA
S107006067800000B1
S11300640100000000000000020000000300000082
S11300740200000001000000010000000000000074
S1130084FFFFFFFFFEFFFFFFFDFFFFFFFFFFFFFF7B
S9030000FC
