S0110000706F6C795F6576616C2E7372656348
S1130000372500001305057113010500EF000009F1
S11300106F000000130101FD232681021304010374
S1130020232EA4FC232CB4FC232404FE6F0000051F
S1130030832784FE639A07008327C4FD83A70700F0
S11300402326F4FE6F00C0020327C4FE832784FD29
S11300503307F702832784FE939727008326C4FD82
S1130060B387F60083A70700B307F7002326F4FE3F
S1130070832784FE938717002324F4FE032784FE3A
S113008093074000E3D6E7FA8327C4FE13850700ED
S11300900324C1021301010367800000130101FF5F
S11300A02326110023248100130401019305200059
S11300B01305400DEFF01FF6130705002324E00E8F
S11300C0130000008320C1000324810013010101F7
S10700D06780000041
S11300D4020000000100000000000000FFFFFFFF19
S10700E4FEFFFFFF19
S9030000FC
