S0110000706F6C795F6576616C2E7372656348
S1130000372500001305057113010500EF004004B6
S11300106F000000930605009307100013081000FA
S1130020930840006F000001032705009387170021
S113003093864600E38A07FF3387E50203A606009A
S11300403307C700E3D4F8FE1305070067800000F8
S1130050130101FF23261100930520001305400717
S1130060EFF05FFB2324A0088320C10013010101EA
S107007067800000A1
S1130074020000000100000000000000FFFFFFFF79
S1070084FEFFFFFF79
S9030000FC
