S015000073686F72746573745F706174682E7372656387
S1130000372500001305057113010500EF00802D4D
S11300106F000000130101FD232681021304010374
S1130020232EA4FC232CB4FCB707008093C7F7FF4E
S11300302326F4FE232204FE6F004006832744FE99
S113004093972700032784FDB307F70083A70700CE
S113005063900704832744FE939727000327C4FD76
S1130060B307F70083A707000327C4FE6342F70220
S1130070832744FE939727000327C4FDB307F700A3
S113008083A707002326F4FE832744FE2324F4FEDB
S1130090832744FE938717002322F4FE032744FE9C
S11300A093078000E3DCE7F8832784FE13850700C9
S11300B00324C1021301010367800000130101FA44
S11300C0232E1104232C8104130401062326A4FAED
S11300D02324B4FA232604FE6F000004130780458A
S11300E08327C4FE93972700B307F70037070080E0
S11300F01347F7FF23A0E7008327C4FE9397270045
S1130100938707FFB387870023A607FC8327C4FED2
S1130110938717002326F4FE0327C4FE9307800069
S1130120E3DEE7FA13078045832784FA93972700D1
S1130130B307F70023A00700232404FE6F00401830
S11301409307C4FB9385070013058045EFF09FECEC
S11301502320A4FE832704FE93972700938707FF99
S1130160B38787001307100023A6E7FC232204FEAD
S11301706F008013832744FE93972700938707FF1C
S1130180B387870083A7C7FC639A0710032704FE7D
S11301909307070093973700B387E70093972700E7
S11301A0138707008327C4FA3387E700832744FEB5
S11301B093972700B307F70083A707006380070E10
S11301C013078045832704FE93972700B307F7009E
S11301D003A70700B707008093C7F7FF6300F70C76
S11301E013078045832704FE93972700B307F7007E
S11301F083A60700032704FE93070700939737009D
S1130200B387E70093972700138707008327C4FA6F
S11302103387E700832744FE93972700B307F7004B
S113022083A707003387F60093068045832744FE9F
S113023093972700B387F60083A707006350F70658
S113024013078045832704FE93972700B307F7001D
S113025083A60700032704FE93070700939737003C
S1130260B387E70093972700138707008327C4FA0F
S11302703387E700832744FE93972700B307F700EB
S113028083A707003387F60093068045832744FE3F
S113029093972700B387F60023A0E700832744FE43
S11302A0938717002322F4FE032744FE930780005C
S11302B0E3D2E7EC832784FE938717002324F4FE1C
S11302C0032784FE93077000E3DCE7E613000000D5
S11302D0130000008320C1050324810513010106D6
S11302E067800000130101FF2326110023248100ED
S11302F0130401019305000013054031EFF01FDCE6
S1130300130000008320C1000324810013010101B4
S107031067800000FE
S113031400000000060000000000000000000000CF
S113032400000000000000000000000008000000BD
S113033400000000060000000000000008000000A7
S113034400000000000000000000000000000000A5
S11303540D00000000000000000000000800000080
S11303640000000007000000000000000600000078
S11303740000000000000000020000000000000073
S11303840000000007000000000000000900000055
S11303940E00000000000000000000000000000047
S11303A4000000000000000000000000090000003C
S11303B4000000000A00000000000000000000002B
S11303C4000000000000000000000000060000001F
S11303D40E0000000A0000000000000002000000FB
S11303E40000000000000000000000000000000005
S11303F400000000000000000000000002000000F3
S113040400000000010000000600000008000000D5
S11304140D000000000000000000000000000000C7
S113042400000000010000000000000007000000BC
S113043400000000000000000200000000000000B2
S11304440000000000000000060000000700000097
S107045400000000A0
S9030000FC
