S01100006669626F6E616363692E7372656375
S1130000372500001305057113010500EF00800872
S11300106F000000130101FE232E1100232C810028
S1130020232A9100130401022326A4FE8327C4FE7D
S113003063960700930700006F0040040327C4FE83
S1130040930710006316F700930710006F00000376
S11300508327C4FE9387F7FF13850700EFF09FFB08
S1130060930405008327C4FE9387E7FF13850700E5
S1130070EFF05FFA93070500B387F40013850700D8
S11300808320C1010324810183244101130101025E
S113009067800000130101FF23261100232481003F
S11300A0130401011305F000EFF0DFF61307050058
S11300B02324E00C130000008320C10003248100EA
S10B00C0130101016780000037
S9030000FC
