S01200006669626F6E61636369312E7372656343
S1130000372500001305057113010500EF00C00535
S11300106F000000130101FF232611002324810037
S113002023229100130405006306050093071000C2
S1130030631EF500130504008320C100032481001E
S11300408324410013010101678000001305F5FFBB
S1130050EFF05FFC930405001305E4FFEFF09FFB52
S11300603384A4006FF01FFD130101FF2326110048
S11300701305F000EFF01FFA2324A0088320C10029
S10B0080130101016780000077
S9030000FC
