S00B00006372632E73726563E1
S1130000372500001305057113010500EF00C00832
S11300106F000000130101FE232E8100130401026E
S11300201307F0002300E00C930780002326F4FE5E
S11300306F0000048347000C9397870193D787418F
S113004063DA07008347000C93C787FD13F7F70FA4
S11300502300E00C8347000C9397170013F7F70F66
S11300602300E00C8327C4FE9387F7FF2326F4FEC6
S11300708327C4FEE340F0FC8347000C93D747007A
S113008013F7F70F2300E00C130000000324C10151
S11300901301010267800000130101FF23261100F0
S11300A02324810013040101EFF0DFF613000000A4
S11300B08320C10003248100130101016780000033
S9030000FC
